:100000000C9442010C945F010C945F010C945F010D
:100010000C945F010C945F010C945F010C945F01E0
:100020000C945F010C945F010C94AD1B0C94801C2C
:100030000C94CA160C945F010C945F010C945F0140
:100040000C945F010C945F010C945F010C945F01B0
:100050000C945F010C9462170C945F010C945F0187
:100060000C945F010C945F010C945F010C945F0190
:100070000C945F010C945F010C945F010C945F0180
:100080000C945F010C945F010C945F010C945F0170
:100090000C945F010C945F010C945F010C945F0160
:1000A0000C945F010C945F010C945F0129002B00FC
:1000B00021522A0053005400550056005F00600092
:1000C000610057005C005D005E00000059005A00AE
:1000D0005B0000000000620063005800007C01002B
:1000E0000100010001000100010001004A0052006E
:1000F0004B000100500000004F0000004D00510077
:100100004E000000000049004C0001000E03720088
:100110006900620069003200310000001A035200D9
:1001200069007300680069002000420069006400F3
:1001300061006E00690000000403090409023B002D
:10014000020100A0FA0904000001030101000921D5
:100150001101000122440007058103080001090480
:100160000100010300000009211101000122B60075
:10017000070582032000011201000200000008EDC3
:10018000FE000000010102000105010902A1018534
:10019000020901A100050919012908150025019589
:1001A00008750181020501093009311581257F9506
:1001B000027508810609381581257F95017508812A
:1001C00006050C0A38021581257F95017508810600
:1001D000C0C005010980A101850319012AB70015D6
:1001E0000126B700950175108100C0050C0901A119
:1001F00001850419012AA002150126A002950175A6
:10020000108100C005010906A1018506050719E056
:1002100029E71500250195087501810205071900D8
:1002200029EF1500250195F07501810205081901D6
:100230002905950575019102950175039101C00588
:10024000010906A101050719E029E7150025019517
:1002500008750181029501750881010507190029BA
:10026000FF150026FF009506750881000508190195
:100270002905150025019505750191029501750364
:100280009101C00011241FBECFEFDAE0DEBFCDBF69
:1002900011E0A0E0B1E0E8E9FEE302C005900D92B4
:1002A000AE38B107D9F722E0AEE8B1E001C01D9247
:1002B000A239B207E1F70E946B100C94F81E0C945F
:1002C00000008230C0F46630B0F44430A0F4E62F71
:1002D000F0E096E0899FE00DF11D1124EE0FFF1F65
:1002E000EE0FFF1FE40FF11DEE0FFF1FE455FF4F50
:1002F00085919491089581E090E008950E946101B4
:10030000089581E008950E948101089581E0089593
:100310000E94810108950E948801089508950E9415
:100320008E010895A6E0B0E0E8E9F1E00C94541ED7
:1003300049835A839E833091950189819A81311135
:100340001AC03E81332399F0222389F00E942E07A0
:10035000182F682F89819A810E940B0769817A8101
:10036000812F0E94240E2696E3E00C94701E0E94BA
:100370001C07182FF3CF0E942E0769817A81F1CFD5
:10038000FC01262F40815181628173818481958196
:100390000E9492010895CF93DF93D82FC92F61E077
:1003A0000E94C0016D2F7C2F0E948301DF91CF91AD
:1003B0000895CF93DF93D82FC92F60E00E94C0012A
:1003C0006D2F7C2F0E948F01DF91CF91089581E0E6
:1003D00008950E94E7010895CF93C82F0E94DD057C
:1003E0008C2F0E94E9012FEF84E39CE02150804094
:1003F0009040E1F700C00000CF91089581E00E9495
:10040000EC010E948617089580E00E94EC010E9492
:10041000971708950F931F93CF93DF938C0161E09B
:100420000E94C001EC01B8010E948B018823B1F148
:10043000B801CE010E949D14882381F1B801CE013C
:100440000E94D110882351F1B801CE010E94A6105C
:10045000882321F1F8018581882381F0CA35FCE7E2
:10046000DF0739F178F4C130ECE7DE07F9F0C3308B
:10047000FCE7DF07C9F0C115DC4771F0C8010E9435
:1004800086010DC0CB35ECE7DE07B1F0CC35DC479B
:10049000A9F70E94620BF2CF0E94FE0180E0DF917B
:1004A000CF911F910F9108950E94740B0E94040236
:1004B000F5CF0E946C0BE2CF0E94700BDFCF0E9441
:1004C000A7160E947F0208950E9483020E94AC1624
:1004D000089581E008950895CF93DF93D82F0E9467
:1004E0006902C82F882319F08D2F0E946B028C2F70
:1004F000DF91CF91089508950E946C02089580E0E5
:100500000E947C0208950E94E3140E947C020895D8
:10051000CF930E94E314C82F809190018C1779F03B
:10052000C09390010E9436176093910170939201DD
:1005300080939301909394018C2F0E947C02CF9121
:100540000895ADE0B0E0E7EAF2E00C94551E48876C
:1005500059876A877B878C879D8791110E946D0AD6
:100560001F8286E0FE013896DE01119601900D9201
:100570008A95E1F78D8181110DC029813A814B81E6
:100580005C816D817E818F810E94B3092D96E2E0AE
:100590000C94711ECE0101960E94CB018111EDCF0A
:1005A000F5CFFC018481813021F4808191810E940A
:1005B00060070895662329F00E943F120E940013ED
:1005C00008950E948812FACFCF93C82F882399F0FC
:1005D0008CEF8C0F813A88F48C2F0E94861588232B
:1005E00029F08C2F0E942B160E94050B8C2F0E9445
:1005F00014160E94050BCF91089580E28C0F88306D
:1006000048F4C77081E001C0880FCA95EAF70E94DC
:100610004E0AEFCF8BE58C0F833038F42C2F245209
:10062000330BC9010E941915E6CFE8E5EC0FEB3159
:1006300050F4F0E0EE0FFF1FE95EFE4F80819181E4
:100640000E943F15D8CF83E38C0F8331A0F661E081
:100650008C2F0E94DA02CFCF882381F19CEF980F74
:10066000913A28F40E942B160E94050B089590E2FF
:10067000980F983050F4877091E001C0990F8A95D7
:10068000EAF7892F0E94540AEFCF9BE5980F933029
:1006900028F480E090E00E941915089598E5980FDD
:1006A0009B3128F480E090E00E943F15089593E389
:1006B000980F933118F460E00E94DA0208951F93B6
:1006C000CF93DF93182FEB010E94E402209739F4B7
:1006D000812F0E942C03DF91CF911F9108958FE904
:1006E0009FE00197F1F700C000002197EFCF60E095
:1006F00070E0893311F460E570E00E945F030895B3
:10070000882321F00E944E0A0E94050B0895882339
:1007100021F00E94540A0E94050B0895A0E0B0E069
:10072000E4E9F3E00C944F1E6C01D62FC72FFC01B7
:100730001581068102950F700E94430AE82E8823D6
:10074000F9F0E12E1123E1F08C2F807F803461F0ED
:1007500080E28D0F8830F0F08C2F807E803221F483
:10076000D230C0F00023B1F08091740282FF12C039
:1007700082E00E94350B0E94430A91E0E82EE926B0
:10078000EC2FE295EF70C03CB0F5F0E0E650F14E92
:100790000C943F1EE12CF4CF0C2F0F70C03110F0E1
:1007A0000295007F112399F0002359F080E28D0F0C
:1007B000883010F0D11107C0802F0E944E0A0E948D
:1007C000050B8D2F51C0802F0E945F0AF8CF8D2F0F
:1007D0000E942C03002379F080E28D0F883010F006
:1007E000D11104C0802F0E94540A03C0802F0E94A0
:1007F000650A0E94050BEE2089F00E943F0A80FDE9
:100800000DC0F60115820E94390A0E946806C601D1
:100810000E94A4050E94390A0E947806CDB7DEB76F
:10082000E8E00C946B1EFC2FFF70FF2EC07FC032DF
:1008300019F0F29480EFF822DD2341F0D130D1F1AC
:10084000112309F444C00023F1F0BBCF809174025E
:1008500082FD15C0112359F0FF2029F08F2D0E9431
:100860004E0A0E94050B80E00E94E402C4CF80E0A3
:100870000E942C03FF2009F4BECF8F2DB4CF11238B
:1008800069F0011104C08F2D0E948003B4CF0130A4
:1008900009F0B1CF8F2D0E94850AADCF0111ABCFEA
:1008A0008F2D0E9487038F2D0E94910A8F2D0E9409
:1008B000740AA1CF112321F0063008F09CCFE3CFBA
:1008C000053008F098CF8F2D0E94870394CF002326
:1008D000D1F3D93349F42FEF87EE93E021508040D4
:1008E0009040E1F700C000008D2F0E942C0383CFC1
:1008F0008C2F869586958370882369F0813009F066
:100900007ACF8D2F9C2F9370111102C080E090E060
:100910000E943F1570CF8D2F9C2F9370111102C034
:1009200080E090E00E94191566CF612F8D2F0E9404
:10093000DA0261CF8C2F8370811139C0111129C067
:100940004D2F429546954770440F440F2D2F2F7021
:1009500030E0042E02C0220F331F0A94E2F780E039
:1009600090E0D4FF09C08FE090E002C0880F991F8B
:100970004A95E2F780959095C695C695C370822BEF
:10098000932BC23071F0C33079F0C13039F00E943E
:1009900038060E94E3140E947C022DCF0E942F068D
:1009A000F8CF0E944106F5CF0E942C06F2CF11230A
:1009B00061F1C0FFEECF4D2F429546954770440F31
:1009C000440F2D2F2F7030E0042E02C0220F331F52
:1009D0000A94E2F780E090E0D4FF09C08FE090E055
:1009E00002C0880F991F4A95E2F780959095C695A9
:1009F000C695C370822B932BC23069F0C33071F05F
:100A0000C13031F00E94A306C4CF823010F2D3CFA0
:100A10000E949A06BECF0E94AC06BBCF0E94500631
:100A2000B8CFCF70112339F08C2F0E9468068D2F1C
:100A30000E948003AECF8D2F0E9487038C2F0E94CF
:100A40007806A7CFD23F31F170F4D03FB9F0D13F53
:100A5000B1F1112309F44EC0002309F448C08D2FD1
:100A60000E94E40296CFD33FE1F0D43F21F111116F
:100A7000F3CF01114DC08C2F8F71E1CF112341F0C5
:100A8000053008F086CF8C2F8F710E948A0681CFA7
:100A90000530F7CF8C2F8F711111D1CF0E946806CE
:100AA00078CF112329F08C2F8F710E945C0671CFB3
:100AB0000E9457066ECF8091740282FD06C08C2F73
:100AC0008F71112309F4BBCFE9CF112331F063E01B
:100AD0008C2F8F710E94170B5CCF81E00E94350B29
:100AE000023008F456CF82E00E94350B52CF8C2F93
:100AF0008F71D4CF002309F4BECFD93349F4EFEF7F
:100B0000F7EE23E0E150F0402040E1F700C00000A4
:100B10008D2F0E942C033DCF0F931F93CF93DF9314
:100B2000EC01688179818D810E946D078C010E94A2
:100B3000B5060E942B06B801CE010E948E03DF91FC
:100B4000CF911F910F910895CF93DF93EC018C818A
:100B5000882399F0CE010E940A02811111C00E94DF
:100B6000430A882351F08D81882339F080917402E3
:100B700082FF03C082E00E94350BDF91CF91089580
:100B8000CE010E948C05CE010E94D901F6CF80E0F3
:100B900090E00E94191580E090E00E943F150E94AD
:100BA0006D0A0E94050B0E941D130E9400130895F8
:100BB0000E9442160E94C70508950E945C0A0E9486
:100BC000D8050895282F92959F70963091F060F483
:100BD000925F9F70923030F481E0203F79F030F4E2
:100BE000283E30F080E008959A5FF3CF243FD1F79C
:100BF000089581E0283EE0F3213FF9CF0895FC01FC
:100C00008481882339F0808191810E9460070E944D
:100C1000E205089580E00895A6E0B0E0E2E1F6E0A4
:100C20000C94551E2696E2E00C94711EA7E0B0E0ED
:100C3000ECE1F6E00C94551E2796E2E00C94711E50
:100C400008950E94200608950E9421069093A50110
:100C50008093A401089508950E9424060895209188
:100C6000A4013091A501822B932B0E9424060895A4
:100C70002091A4013091A501822393230E94240690
:100C800008952091A4013091A501822793270E9405
:100C9000240608950E94200608950E944A06089599
:100CA0000E944D069093A3018093A201089580E0D5
:100CB00090E00E945006089521E030E0A90102C0B2
:100CC000440F551F8A95E2F7CA010E945006089505
:100CD00021E030E002C0220F331F8A95E2F78091B5
:100CE000A2019091A301822B932B0E94500608959C
:100CF00021E030E002C0220F331F8A95E2F72095F1
:100D000030958091A2019091A301822393230E94A8
:100D10005006089521E030E002C0220F331F8A956B
:100D2000E2F78091A2019091A301822793270E946C
:100D3000500608952091A2013091A301822B932B9C
:100D40000E94500608952091A2013091A3018223B0
:100D500093230E94500608952091A2013091A3018F
:100D6000822793270E945006089508959B0167707B
:100D700091E001C0990F6A95EAF763E036952795EF
:100D80006A95E1F7220F331F220F331FFA01E20F9A
:100D9000F31F40E050E0682F70E08191DF01119770
:100DA0009B01042E02C0369527950A94E2F7217024
:100DB00021952827292328272C934F5F5F4F443004
:100DC000510559F708959C01982F977083E0369547
:100DD00027958A95E1F7220F331F220F331FFB015E
:100DE000E20FF31F40E050E080E0219130E0092E57
:100DF00002C0369527950A94E2F721703327042E16
:100E000001C0220F0A94EAF7822B4F5F5F4F4430F4
:100E1000510559F70895282F862F963060F4243015
:100E200050F434E0939FB0011124620F711D46E924
:100E300051E00E94B6060895282F963068F4843059
:100E400058F434E0939FC001112466E971E0820FE9
:100E5000911D0E94E306089580E00895A0E0B0E0AF
:100E6000E4E3F7E00C944E1E8C01E090A201F090B8
:100E7000A3018091A4019091A501E82AF92ACFE06D
:100E8000D0E0CC24C394D12CC6010C2E02C0880F14
:100E9000991F0A94E2F78E219F21892B49F421970B
:100EA00098F7B12C8B2DCDB7DEB7E9E00C946A1E14
:100EB000BC2EB8018C2F0E94300E019781F3F2CF27
:100EC000CF93DF93D82FC92F0E942E076D2F7C2F31
:100ED0000E94300EDF91CF9108951F93CF93DF933F
:100EE000162FD72F90919501992341F0862F972F98
:100EF0000E946007DF91CF911F910895882381F0B0
:100F0000862F972F0E942E07C82F682F812F9D2F85
:100F10000E940B07612F7D2F8C2F0E94300EEACF8D
:100F2000862F972F0E941C07C82FF4CF0F931F9373
:100F3000CF93E091A601C7E08091A7018E1304C072
:100F4000CF911F910F9108950E2F10E0CE9FF001C9
:100F50001124E855FE4F2081318142815381648103
:100F6000758186810E941606F8013196E770E4CFFC
:100F70002091E0013091E1014091E2015091E301C3
:100F80006091E4017091E5018091E6010E941606EE
:100F900008958091E601803178F48091E5018823FD
:100FA00059F0E091A6012091A7013091E101409113
:100FB000E00157E02E1301C008956E2F70E05E9F90
:100FC000F0011124DF01A855BE4F14968C9114979F
:100FD000882361F111968C911197831327C08C910E
:100FE000841324C015968C91159781111FC01296F9
:100FF0008D919C91A091E201B091E3018A1B9B0B22
:10100000883C910598F48091E6018F70806180930F
:10101000E601E255FE4F80818F708061808380EE13
:1010200091E00E94A4050E9496070895FB01319665
:10103000E770C0CFE091A6019091A70127E0E913E6
:1010400002C080E00895AE2FB0E02E9FF001112481
:10105000E855FE4F3181361306C03081381303C086
:101060003581341304C0FD013196E770E8CF81E08B
:1010700008958F929F92AF92BF92DF92EF92FF926C
:101080000F931F93CF93DF93CDB7DEB72D970FB696
:10109000F894DEBF0FBECDBF8C0186E0F801DE0103
:1010A000189601900D928A95E1F7F801E080F5809D
:1010B000A280B380848190EE892E91E0992E909148
:1010C000E40191111BC0882309F4FCC0FF2009F43E
:1010D0003DC1C8010E94FF05882309F437C187E09C
:1010E000F801D40101900D928A95E1F7C4010E94A4
:1010F000D1020E94C9070E94B807E4C0D090E50160
:101100002091E2013091E301A501421B530BDD2048
:1011100009F4DBC0483C510508F0A6C0882309F457
:10112000D1C09091E10191808091E601803108F079
:101130006BC0991228C09091E0019E1124C0F1105B
:101140005DC08F7080618093E6010E94B80780EED9
:1011500091E00E94A4058091E601F8018683F12CBC
:101160008F2D2D960FB6F894DEBF0FBECDBFDF9149
:10117000CF911F910F91FF90EF90DF90BF90AF90B4
:101180009F908F900895F11039C040E0692D8E2D09
:101190000E941A0840E0692D8E2D0E941A08F82E30
:1011A0008111DDCF888599850E946007292F2295BE
:1011B0002F70903450F49F70223080F0992399F072
:1011C000F8019681903178F4CBCF2A5F2F702230CE
:1011D00078F0C8010E94A405FD2CC2CF992319F014
:1011E000882309F4BDCF805E883008F4B9CFF1CFF1
:1011F000803F08F4B5CF815F8230F7CF8091E60160
:1012000081608093E601ABCF991207C09091E00115
:101210009E1103C0FF2009F479C0C8010E94FF0598
:10122000882309F493C0FF2009F490C08091E6015F
:10123000803288F02091E0013091E1013A832983E6
:10124000BC82AB829091E4019D831E828F83CE018C
:1012500001960E94A40587E0F801A0EEB1E001909C
:101260000D928A95E1F745CF9091E6019031A0F477
:10127000488559856A857B858C859D850E940C06ED
:1012800080EE91E00E94A40587E0F40111928A9516
:10129000E9F70E94B80763CF8823A1F02091E1010C
:1012A00081812813BACF8091E0018E11B6CFF11061
:1012B000B4CF9683C8010E94A40587E0F40111927F
:1012C0008A95E9F7FF24F3944BCF483C510508F089
:1012D00041C08823B9F3FF20C9F19091E1018181D8
:1012E00098132AC08091E0018E1126C08091E601FA
:1012F00080FD19C08031B8F08683807F803F39F04F
:101300008681982F907F905F8F70892B8683C8018C
:101310000E94A40587E0F801A0EEB1E001900D92D3
:101320008A95E1F7E8CE87E0F801A0EEB1E0019000
:101330000D928A95E1F7C6CFC8010E94FF05811181
:101340008ACF8091E60181608093E601C8010E9406
:10135000A405B8CF488559856A857B858C859D8590
:101360000E940C0691CFAEE0B0E0E9EBF9E00C94FE
:10137000541E288739874A875B876C877D878E87CD
:10138000CE0108960E9439088823B1F06C85662347
:1013900041F0288539854A855B857D858E850E944B
:1013A000160617E08091A6019091A70189133EC00F
:1013B0002E96E3E00C94701E87E0FE013896DE0165
:1013C000119601900D928A95E1F72091A701409125
:1013D000A6018C85882329F330E0C9010196877026
:1013E000992750E08417950799F097E0929FD001D4
:1013F000939FB00D1124A855BE4FFE013196019068
:101400000D929A95E1F78093A7010E949607C9CFA4
:101410000E94DD051092A7011092A60187E0E0EE80
:10142000F1E0DF011D928A95E9F7BBCF189FC0015B
:10143000112488559E4F0E943908882309F4B8CF9B
:10144000E091A6011E9FF0011124E855FE4F208176
:101450003181428153816481758186810E941606A3
:101460008091A60190E00196877099278093A6014C
:1014700099CF80910F0286958695869508958091E3
:101480000F028770089590910F02977081E091117B
:1014900001C080E0089580913B02089590913B0245
:1014A000982B90933B020895982F909580913B0242
:1014B000892380933B02089510923B0208959091F6
:1014C0003A02982B90933A020895982F9095809124
:1014D0003A02892380933A02089510923A020895BD
:1014E00008950E94700A089590911002292F2823D0
:1014F000222331F080958923809310020E94710A83
:10150000089508950E94810A089590911102292F4B
:101510002823281729F0982B909311020E94820A01
:10152000089590911102292F2823222331F08095CC
:101530008923809311020E94820A089580911102EA
:10154000882329F01092110280E00E94820A0895F7
:10155000CF93DF93C0913B0280913A02C82BD09188
:101560001102DD2331F00E94651581110E949E0A4F
:10157000CD2B8C2FDF91CF910895CF93DF93C09126
:101580000201D09103010E94A80A8883C091020140
:10159000D091030148E050E067E072E0CE010E9484
:1015A000901E892B59F088E0FE01A7E0B2E001907F
:1015B0000D928A95E1F7CE010E94F014DF91CF9150
:1015C0000895CF93DF93C0910001D09101010E9453
:1015D000A80A8983C0910001D091010140E250E046
:1015E00067EE71E0CE010E94901E892B59F080E2D7
:1015F000FE01A7EEB1E001900D928A95E1F7CE01D0
:101600000E94FB14DF91CF910895809116018823E9
:1016100039F08091730287FF03C00E94E10A0895A8
:101620000E94BD0A089508950E94130B0895909199
:10163000740292FF11C098E0899F90011124622BDF
:1016400060930F020E94680680910F02869586952E
:1016500086950E94140B08950E94680608951092C2
:101660000F0280E00E94140B089590910F02809564
:10167000892380930F02282F277021110DC089170D
:1016800059F09091740292FF07C0869586958695D1
:101690000E9478060E942F0B08959091740292FB8D
:1016A000222720F9281769F080FB92F990937402A1
:1016B00080917302909174020E94950B82E00E94C7
:1016C000350B08958091740282FB882780F991E0A0
:1016D00089270E944D0B089581E00E944D0B0895CB
:1016E00080E00E944D0B08956FEF7FEF80E090E067
:1016F0000E94E21E089580E090E00E94AE1E9C01D0
:1017000081E0253E3E4F09F080E0089582E090E0C0
:101710000E94A61E089583E090E00E94A61E0895F0
:1017200084E090E00E94AE1E0895BC0184E090E049
:101730000E94E21E0895AB01BC018FE090E00E9480
:10174000D61E0895AB01BC0183E190E00E94D61E35
:10175000089560E070E0CB010E94A20B089560E064
:1017600070E0CB010E949B0B0E94A90B0895A8E09A
:10177000B0E0EDEBFBE00C94551E65EE7EEF80E0F3
:1017800090E00E94E21E60E082E090E00E94C41EB1
:1017900081E090E09093A5018093A40161E083E053
:1017A00090E00E94C41E60E074E184E090E00E943A
:1017B000E21E60E086E090E00E94C41E60E087E0E8
:1017C00090E00E94C41E40E050E0BA0188E090E042
:1017D0000E94D61E60E083E290E00E94C41E60E09A
:1017E0008CE090E00E94C41E60E08DE090E00E94DA
:1017F000C41E19821A821B821C821D821E821F82B5
:10180000188648E050E067E170E0CE0101960E9442
:10181000B41E40E050E0BA018FE190E00E94D61E75
:101820000E94AF0B2896E2E00C94711E0E94B70B49
:101830000895682F8EE090E00E94C41E0895A6E0EF
:10184000B0E0E5E2FCE00C94531E0E942A178C01E4
:1018500080913C0290913D028017910779F01982A6
:101860001A820E942A17BC0149815A8180E090E0C7
:101870000E94A10210933D0200933C022696E4E0F0
:101880000C946F1E0E9436176093480270934902B1
:1018900080934A0290934B026093440270934502F6
:1018A00080934602909347020895089508950E94F8
:1018B000550C089508950E945A0C089588E29FE0FF
:1018C0000E9480100E94560C0E94570C089581E0DF
:1018D00008950E94670C08950E94670C089508956A
:1018E00008950E946F0C0E94700C08950E947B0B5B
:1018F000811102C00E94160C0E94860B80934C023C
:101900000E94900B90937402809373020E94A31024
:101910000E948B0B90E00E942C068091A201909176
:10192000A3010E944D0608950E9421170E94D40F22
:101930000E94760C0E947B020E945B0C0895A6E038
:10194000B0E0E5EAFCE00C944C1E0E94690C8111A9
:101950000AC00E941F0C0E943E130E948802269615
:10196000EBE00C94681E0E94EA0F8EE3A82E82E042
:10197000B82E750110E0F70101917F01812F0E94BF
:10198000320F1F5F163009F443C00817A1F380918E
:101990004C0281FD0E94380F0E946C0CC82E00E0A2
:1019A00099249394802F0E94320F182FF501919162
:1019B0005F01891739F1D82ED926F12CEE24E39452
:1019C0008D2D8E218823B1F0CC20A1F0F9820A83DD
:1019D0000E942A179C838B839D8291E0812F8E2108
:1019E000811101C090E049815A816B817C818D8198
:1019F0000E94A102F394EE0CF4E0FF12E1CFF50196
:101A0000319710830F5F063069F60E94420CA3CF16
:101A10000813BDCF9ECF1F93CF93DF930E94350E47
:101A2000EC01811522E5920708F053C0811540E5CD
:101A3000940708F0DDC0803E9105F8F48D3C9105D7
:101A400008F0AEC0883A910580F4853A910508F017
:101A500099C08130910521F00497813A910550F4A5
:101A6000CE01DF91CF911F910895885A91094B972C
:101A700008F48BC0C0E0D0E0F3CF811550E49507A7
:101A8000F8F4C11580E2D80708F0CBC0C83ED105F4
:101A900038F3CE019A9581159F4160F78D2F0E94F2
:101AA000D90E182FCE0199270E94350E212F30E034
:101AB000322F2227E901CC27DF71C82BD92BD0CFB9
:101AC00099270E94350ECC27DF70C82BD92BD06AFE
:101AD000C7CF803842E59407C8F5803652E59507B0
:101AE00008F067C0C03482E5D807B0F08C2F869527
:101AF0008695877020E2829FC0011124C37021E087
:101B000030E0A90102C0440F551FCA95E2F7EA016F
:101B1000C82BD92BDC68A4CFC03252E5D50708F01A
:101B200041C08C2F8695869520E2829FC0011124AA
:101B3000C37021E030E0A90102C0440F551FCA95CF
:101B4000E2F7EA01C82BD92BDD688ACF803C52E549
:101B5000950760F48F71C03AD24508F03FC090E01D
:101B6000982F8827EC01C46FD06A7ACF805C9245A9
:101B7000809708F07FCFDC2FCC27CC27DF71C06F98
:101B8000D06A6ECFA497D0646BCFC85AD0E0CC0F88
:101B9000DD1FC35BDE4F0990D881C02DD46460CFB8
:101BA000D0655ECFCF71D0E0DC2FCC27C16FD06A7B
:101BB00057CF86958695877020E2829FC0011124B9
:101BC000C37021E030E0A90102C0440F551FCA953F
:101BD000E2F7EA01C82BD92BDA6842CF0E94D90E6E
:101BE000C82FD0E0DC2FCC27CC27DF71D06238CFD4
:101BF0008F710E94D90E65E0D695C7956A95E1F779
:101C0000CF70D0E0DC2FCC27282F30E084FF05C038
:101C100054E0220F331F5A95E1F7C22BD32BD06922
:101C20001FCF8D2F8F710E94D90E182FCE019927AB
:101C30000E94350E212F30E0322F222722273F71BC
:101C4000282B392BE901D2CF462F672F763028F485
:101C5000443018F40E947E01089580E090E00895D9
:101C60000E94240E0E940B0D0895803E9105D1F133
:101C7000C8F48133910509F47FC048F48932910595
:101C800009F46FC08A32910509F47DC00895893343
:101C90009105E1F082389105C9F08533910509F489
:101CA0005BC00895843E9105D1F148F4823E9105D0
:101CB00031F1833E910541F181EE90E00895863E39
:101CC0009105C1F1873E9105E1F1089520917302DC
:101CD0002370211165C02091740223FF14C089E292
:101CE00090E008952091730220FD43C0309174026A
:101CF00030FF09C024FF4EC080E090E0089520919D
:101D0000730222FDF7CF08952091730222FD45C092
:101D10003091740230FD44C024FFF5CFEDCF209107
:101D2000740221FFF0CF8091730284FDE5CF87EE2E
:101D300090E008952091730223FFE5CF24FDDCCFCE
:101D4000F6CF2091730223FD2EC03091740231FF33
:101D5000E3CF84EE90E008952091730225FFD3CF66
:101D6000BECF2091730225FD21C02091740223FF74
:101D7000CACF89E390E008952091730226FFC3CF74
:101D80008AE290E008952091730226FFBCCF81E3A0
:101D900090E0089583EE90E0089582EE90E008953B
:101DA00080EE90E0089586EE90E0089585E390E05F
:101DB000AACF9091730292FF10C041E0282F2471A6
:101DC000243009F040E031E0282F2871283009F054
:101DD00030E0431711F02CE0822793FF10C041E060
:101DE000282F2471243109F040E031E0282F287198
:101DF000283109F030E0431711F02CE082273091B0
:101E0000740230FF10C051E0282F2171213009F0F9
:101E100050E041E0282F2871283009F040E05417A5
:101E200011F029E0822731FF10C041E0282F2171F5
:101E3000213109F040E031E0282F2871283109F0E4
:101E400030E0431711F029E0822794FD877E089542
:101E500080E0089508950E942A0F089508950E9431
:101E60002E0F0895E82FF0E0E558FD4F808108958A
:101E7000089580EA8A95F1F7089500C008950E94B8
:101E8000390F0895F894E82FE295EF70F0E041A142
:101E90008F7021E030E0B90102C0660F771F8A958C
:101EA000E2F7CB01962F9095942391A392A1892BD1
:101EB00082A378940895CF93DF93C7E8D1E0899106
:101EC0008F3F11F00E94420F81E0CD38D807B9F75B
:101ED00086E60E94420F84E90E94420F80E90E9438
:101EE000420F81E90E94420FDF91CF910895A0E057
:101EF000B0E0EDE7FFE00C944F1EEC01D62E062F6C
:101F000010E0C80189579E4F7C01FC0180818F3F02
:101F100009F445C0F894E82FE295EF70F0E091A144
:101F20008F7021E030E001C0220F8A95EAF7892FF7
:101F3000822B81A382A12095282322A378940E943A
:101F40003D0FE3E8F1E091E0C12C81918F3F81F0FA
:101F5000A82FA295AF70A05EB0E02C9130E08F70FA
:101F600002C0359527958A95E2F72170892F2111B6
:101F700080E0C82A990F81E0E738F80731F7F701C8
:101F800080818F3F11F00E94420F61E0C11001C0BB
:101F900060E08D2D0E943F0FC00FD11FC882CDB7CA
:101FA000DEB7E8E00C946B1E0E945B0F86E0EBE767
:101FB000F2E0DF01982F1D929A95E9F7E5E7F2E04C
:101FC000DF011D928A95E9F786E00E9428100E94A1
:101FD0002B0F0895A6E0B0E0E0EFFFE00C94521E56
:101FE0001A821982FE01339684E0DF011D928A95E0
:101FF000E9F7F12C8E010F5F1F4F6F2DC8010E9472
:10200000770FF394B6E0FB12F8CF46E050E0B8014A
:1020100085E792E00E94901E21E0892B81F420E068
:1020200046E06BE772E085E792E00E942910182FE6
:102030000E942F0F812F2696E5E00C946E1E86E0FD
:10204000F801A5E7B2E001900D928A95E1F7E8CF9B
:102050000895A0E0B0E0EFE2F0E10C944F1ED82E1E
:10206000E92EF62ED72F042FC22F222379F081E0FC
:1020700080934F020E942A1790934E0280934D0244
:1020800080E0CDB7DEB7E8E00C946B1EC0904F0245
:10209000CC20B1F380914D0290914E020E945317D3
:1020A000059770F310E0A8016D2D7E2D8F2D9D2FCB
:1020B0000E94901E892B41F0A8016D2D7E2D8F2D41
:1020C0009D2F0E949D1ECC2D10924F028C2FD9CF98
:1020D0000E949F0C08950E94C3160E94EB180E9454
:1020E0005E0C0E9405190E94940C0E9412190E9415
:1020F00017190E9468100E9431190E94710CF7CFC5
:1021000090938F0180938E0108950E94740B08951F
:1021100080E00E94320F817008950E94EA0F2FEF35
:1021200086E791E0215080409040E1F700C0000038
:102130000E94EA0F0E948810882321F00E948510D7
:102140000E94861708950E948D100895CF93DF9303
:10215000EB0186319C4719F50E944B0A9D8199231A
:10216000A1F08A7A91E0811101C090E09093500231
:10217000882349F085E30E9414160E94050B80E035
:10218000DF91CF91089589E2F6CF809150028823A4
:1021900021F085E30E942B16F0CF89E2FBCF81E08E
:1021A000EFCFCF93DF93EC01FB018581882309F406
:1021B000D2C09E0130572332310508F0B2C00E94D0
:1021C000900B9093740280937302FE01E150F047EC
:1021D000E232F10520F4EA5FF04E0C943F1E80914C
:1021E000730281608093730293C08091740288604F
:1021F000809374028DC0809173028260F3CF8091CE
:1022000073028460EFCF809173028860EBCF80917E
:1022100074028160EDCF809174028260E9CF809179
:1022200073028061DFCF809173028062DBCF809187
:1022300073028064D7CF0E94DD05809173028068AD
:10224000D1CF809173028C60CDCF80917402836076
:10225000CFCF809173028E7FC5CF80917402877F2C
:10226000C7CF809173028D7FBDCF809173028B7F2A
:10227000B9CF80917302877FB5CF809174028E7F32
:10228000B7CF809174028D7FB3CF809173028F7E20
:10229000A9CF809173028F7DA5CF809173028F7B30
:1022A000A1CF0E94DD05809173028F779BCF809133
:1022B0007302837F97CF809174028C7F99CF809136
:1022C000730282FB992790F921E0922790FB82F913
:1022D00090FB83F987CF80917402982F909591702D
:1022E0008E7F892B90FB81F983CF90917302892F88
:1022F0008F7B96FF806476CF0E94DD0590917302FC
:10230000892F97FB87F980586DCF81E00E94190CC7
:1023100080917302909174020E94950B0E94DD05DA
:1023200080E0DF91CF91089580E0F0CF909173022B
:10233000892F8F7E94FF806155CF90917302892FF2
:102340008E7F90FF81604ECF90917402892F877F9E
:1023500093FF88604DCF81E0E4CF282F35EB230336
:10236000C001112497FF04C080589109892F089556
:1023700080589F4FFBCF8091570280FF0DC0609126
:10238000090170E0660F771F60387105C0F56115AF
:102390007105B9F1862F089581FF07C06091090189
:1023A00084E0689FB0011124EFCF82FF04C06091E8
:1023B000090188E0F6CF809156028823E9F09091D8
:1023C00008016091090170E0891730F093E0660F11
:1023D000771F9A95E1F7D8CF869F9001879F300DA0
:1023E000112483E0220F331F8A95E1F7692F70E0F3
:1023F000C9010E942B1EC8CF68E070E0CBCF8FE7E9
:10240000089581E008958091570280FF0CC060918B
:10241000050170E07595679575956795611571056E
:1024200061F1862F089581FF06C06091050170E07B
:1024300075956795F3CF6091050170E082FD15C039
:10244000209155022223B1F0909104016091050181
:1024500070E0291750F4269FA001279F500D1124EA
:10246000692F70E0CA010E942B1E60387105B0F21E
:102470008FE7089561E070E0D4CF81E00895E3E351
:10248000E80FE331E0F5F0E0E85DF04E0C943F1E1C
:102490000E94BB11819580935B0208950E94BB113D
:1024A000FACF0E94BB11819580935A0208950E9431
:1024B000BB11FACF0E94031280935C0208950E9420
:1024C00003128195F9CF0E940312819580935D02DA
:1024D00008950E940312FACF815D990B21E030E04C
:1024E00001C0220F8A95EAF780915902822B8093CE
:1024F0005902089580915702816080935702089590
:10250000809157028260F9CF809157028460F5CFA5
:1025100040915A028D3C59F480915B0287FF0DC0B7
:1025200010925B02442359F41092560208C08E3C6C
:1025300081F480915B0218169CF3442381F0809112
:102540005C0290915D02892B811159C01092550255
:1025500008958F3C41F447FFF0CF10925A028091CA
:102560005B028823E0CF803D19F41416B4F3E5CF65
:1025700090915C02893D29F41916FCF610925C02D8
:10258000DCCF8A3D19F497FFD8CFF8CF90915D0248
:102590008B3D29F497FFD1CF10925D02CECF8C3DB9
:1025A00019F41916CCF3C9CF9FE2980F983090F424
:1025B000815D990B21E030E0B90102C0660F771F01
:1025C0008A95E2F7CB0180959091590289238093F7
:1025D0005902B3CF8D3D31F4809157028E7F8093A5
:1025E0005702ABCF8E3D21F4809157028D7FF7CFFC
:1025F0008F3D09F0A2CF809157028B7FF0CF0895D5
:102600000E942A1720915A0230915B02232B222329
:1026100021F0809353029093540220915C023091F8
:102620005D02232B222321F08093510290935202CA
:1026300088E592E00E940A15089586E0E8E5F2E058
:10264000DF011D928A95E9F7109256021092550209
:10265000109257020895FC01828181110DC083817F
:1026600081110AC08481811107C081E09581911197
:1026700001C080E08170089581E0FCCFA6E0B0E069
:10268000E4E4F3E10C94521E86E0E8E5F2E09E01FA
:102690002F5F3F4FD90101900D928A95E1F710927B
:1026A0005A0210925B0210925C0210925D028B81C2
:1026B0009C81892B8901882391F08091530290910C
:1026C00054020E9453179C01809156028823C9F13D
:1026D00040910A0150E04217530708F43FC08D8132
:1026E0009E81892B882399F080915102909152020A
:1026F0000E9453179C0180915502882309F467C0FA
:102700004091060150E04217530708F46EC0B8012B
:1027100088E592E00E945C16811105C088E592E090
:102720000E942B1381110E94001386E0F801A8E596
:10273000B2E001900D928A95E1F72696E5E00C94BF
:102740006E1E40910B019AE0499FA001112442178F
:10275000530728F68F5F8093560202C08F3FD1F750
:10276000FB80FF2059F00E94BB1191E01F140CF078
:102770009FEF899F802D112480935A02FC80FF20B7
:1027800059F00E94BB1191E01F140CF09FEF899F3C
:10279000802D112480935B0280915A02882309F4D2
:1027A0009ECFF0905B02FF2009F499CF0E94AD11FB
:1027B000811101C081E080935A028F2D0E94AD11DA
:1027C000882319F080935B028ACF81E0FBCF409190
:1027D00007019AE0499FA00111244217530708F00E
:1027E00096CF8F5F8093550202C08F3FD1F7FD8057
:1027F000FF2059F00E94031291E01F140CF09FEF8C
:10280000899F802D112480935C02FE80FF2059F067
:102810000E94031291E01F140CF09FEF899F802DFE
:10282000112480935D0280915C02882309F46FCFAC
:10283000F0905D02FF2009F46ACF0E94AD11811172
:1028400001C081E080935C028F2D0E94AD1188232E
:1028500019F080935D025BCF81E0FBCF0F931F9354
:10286000CF93DF93C42FD22FFC0185818823C9F039
:10287000409360020E942A1790935F0280935E0249
:1028800080E28C0F883040F4C77081E001C0880F6F
:10289000CA95EAF70E948003DF91CF911F910F91B3
:1028A00008951091600214133CC080915E029091D3
:1028B0005F020E945317883C910598F5C0E2CD0F46
:1028C0001D1741F180E2810F883040F4177081E0DC
:1028D00001C0880F1A95EAF70E948703C83020F0DC
:1028E000802F0E947703D8CF91E08D2F877001C091
:1028F000990F8A95EAF7892F0E948003802F0E9402
:102900007703D77081E001C0880FDA95EAF70E945B
:102910008703C2CF802F0E947703C83008F0BCCF56
:10292000F0CF80E28C0F883008F0B6CFC77081E01E
:1029300001C0880FCA95EAF7EACF0F93FC01CB01DB
:10294000E851FC47E730F10590F5E55CF04E0C945A
:102950003F1E06E221EE41EE6AE17CE70E942E1462
:1029600080E00F91089507E225EE45EE6BE17CE7EC
:10297000F5CF06E221EE40EE68E17CE7EFCF07E21B
:1029800025EE44EE69E17CE7E9CF06E221EE42EE76
:102990006CE17CE7E3CF07E225EE46EE6DE17CE7F4
:1029A000DDCF08E221E045EE6EE17CE7D7CFFB0109
:1029B000858181111092600281E0D3CF90936602ED
:1029C000809365020895E0916502F0916602309768
:1029D00029F00190F081E02D0995089580E0089597
:1029E000E0916502F0916602309721F00280F38158
:1029F000E02D09950895DC01E0916502F0916602F1
:102A0000309739F086E08C930480F581E02DCD017C
:102A100009950895DC01E0916502F0916602309716
:102A200039F082E08C930680F781E02DCD01099585
:102A30000895A3E0B0E0EFE1F5E10C94551E9C0190
:102A4000809163029091640282179307A1F0309302
:102A5000640220936302E0916502F0916602309770
:102A600051F083E089833B832A830084F185E02D44
:102A7000CE01019609952396E2E00C94711EA3E025
:102A8000B0E0E5E4F5E10C94551E9C0180916102F3
:102A90009091620282179307A1F030936202209313
:102AA0006102E0916502F0916602309751F084E096
:102AB00089833B832A830084F185E02DCE01019632
:102AC00009952396E2E00C94711E20910201309149
:102AD00003012E5F3F4F809116018823A9F080915A
:102AE000730287FF11C020910001309101012E5F18
:102AF0003F4F9DE180E0F90140812F5F3F4F411141
:102B00008F5F9150C0F7089595E0F4CF882321F1AD
:102B100090911601992311F19091730297FF1EC0B5
:102B2000982F969596959695803FB0F4E091000188
:102B3000F0910101E90FF11D228130E0877041E041
:102B400050E0BA0102C0660F771F8A95E2F726238C
:102B5000372381E0232B91F480E008952091020136
:102B600030910301F9013296285F3F4F91919817F8
:102B700021F0E217F307D1F7EFCF81E008959C0130
:102B8000FC0132968FEF90E04191461751F08F3F54
:102B900019F4411101C0892F9F5F9630A9F78F3F2B
:102BA00009F40895280F311D87FD3A95F9016283D4
:102BB00008959C01FC013296285F3F4F8191861356
:102BC00003C0DF0111971C92E217F307B9F70895CC
:102BD000FC01862F869586958695603F60F4E80F08
:102BE000F11D677021E030E001C0220F6A95EAF71D
:102BF0008281822B82830895FC01862F869586959B
:102C00008695603F80F4E80FF11D677081E090E0E9
:102C10009C0102C0220F331F6A95E2F7B90160954B
:102C20008281682362830895682F8091160188232A
:102C300059F08091730287FF07C080910001909145
:102C400001010E94E815089580910201909103010D
:102C50000E94BF150895682F80911601882359F0AE
:102C60008091730287FF07C080910001909101015C
:102C70000E94FC15089580910201909103010E9429
:102C8000D915089580911601882379F080917302F7
:102C900087FF0BC0E0910001F091010132968EE1B7
:102CA000DF011D928A95E9F70895E0910201F09104
:102CB0000301329686E0F4CFDC01FB0111969C9172
:102CC00011978181981322C012968C9112978823B4
:102CD00019F0928189131AC013968C911397882347
:102CE00019F09381891312C015968C91159788233A
:102CF00019F0958189130AC014969C91992321F0AB
:102D000081E02481291303C080E001C081E081704B
:102D1000089508950E94891608958F5F8093670231
:102D20000E948A16089583E0809367020E948A16A3
:102D300008950E948D16089581E0809367020E9495
:102D40008A1608950E949C160895089508950E9479
:102D5000A6160895089508950E94A5160895CF9384
:102D60000E94AA160E94EA0F0E94AB16C0E08C2FA8
:102D70000E94320F811105C0CF5FC630C1F7CF91DD
:102D8000089581E0FCCF85B7806885BF85B78068EE
:102D900085BF08951F921FB61F9211248F939F9392
:102DA000AF93BF9380916802811113C0809181021B
:102DB00090918202A0918302B09184024196A11D5C
:102DC000B11D8093810290938202A0938302B093FD
:102DD0008402BF91AF919F918F911F901FBE1F9052
:102DE000189580918902843031F10E945F0210921F
:102DF000680288E190E020E40FB6F894A8958093EB
:102E000060000FBE2093600083B7817F846083BF22
:102E100083B7816083BF7894889583B78E7F83BFA3
:102E20000FB6F894A8958091600088618093600047
:102E3000109260000FBE08950E94DD050E9464029A
:102E4000089582E084BD93E095BD9AEF97BD80938D
:102E50006E0008952FB7F8948091810290918202BC
:102E6000A0918302B09184022FBF0895A4E0B0E046
:102E7000ECE3F7E10C94551E8FB7F8942091810292
:102E800030918202409183025091840229833A83D7
:102E90004B835C838FBF69817A818B819C8124966F
:102EA000E2E00C94711E9C014FB7F894809181026E
:102EB00090918202A0918302B09184024FBF821B45
:102EC000930B089578941F921FB61F9211248F932D
:102ED0009F93AF93BF938091810290918202A091C2
:102EE0008302B09184020196A11DB11D80938102DD
:102EF00090938202A0938302B0938402BF91AF911A
:102F00009F918F911F901FBE1F90189587E797E79D
:102F1000909301088093000888E19AE00FB6F89436
:102F2000A895809360000FBE90936000FFCF88E16A
:102F30009AE00FB6F894A895809360000FBE909326
:102F40006000FFCF809171020895282FCB01BA0154
:102F5000309189023430E1F42F702093E9002FEF93
:102F60003091E80035FD07C035ED3A95F1F70000E6
:102F700021502111F5CF2091E80025FF09C040E044
:102F800050E00E94A9198091E8008E778093E800B4
:102F90000895BC0143E050E082E00E94A517089527
:102FA000BC0146E050E082E00E94A5170895BC01F4
:102FB00040E250E082E00E94A5170895CF93DF938E
:102FC000D82FC92F48E050E0682F792F81E00E9468
:102FD000A51788E0ED2FFC2FA9E6B2E001900D9235
:102FE0008A95E1F7DF91CF91089580918802811150
:102FF00009C00E94311B0E948E1B8091E2008460F8
:103000008093E20008951092880208950E949C1611
:1030100008956091850281E0611101C080E00E9405
:10302000931608959091890281E0943009F080E030
:10303000609185020E949916089542E061EC81E05A
:103040000E94AD1A42E261EC82E00E94AD1A9091BA
:10305000890281E0943009F080E0609185020E944D
:103060008D16089580918B02893089F148F4823061
:1030700009F4A0C0833009F45AC0813041F00895AA
:103080008A3009F487C08B3009F46CC008958091B0
:103090008A02813A09F04AC08091E800877F8093D4
:1030A000E80080918E0290918F02892B61F060E0A0
:1030B00080E090E070E00E94F8198091E8008B7742
:1030C0008093E800089568E089E692E0F3CF80916C
:1030D0008A02813259F580918E0290918F02029777
:1030E00028F58091E800877F8093E8008091E800D0
:1030F00082FF18C09091F3008091F200029731F4A2
:103100008091F100813011F0863021F48091F1003E
:10311000809371028091E8008B778093E8000E9491
:10312000E11A04C0809189028111E0CF0895809155
:103130008A02813AD9F780918E0290918F02892B71
:10314000A9F78091E800877F8093E8008091E800EC
:1031500080FFFCCF809116018093F1008091E80000
:103160008E77DBCF80918A02813201F780918E02C7
:1031700090918F02892BD1F68091E800877F809310
:10318000E8000E94E11A80918C02809316010E944F
:10319000DD05089580918A02813241F68091E80030
:1031A000877F8093E8000E94E11A80918D028093CE
:1031B0007202089580918A02813A09F0B7CF809116
:1031C000E800877F8093E8008091E80080FFFCCFD3
:1031D00080917202C1CF84B7877F84BF0FB6F89405
:1031E000A8958091600088618093600010926000D3
:1031F0000FBE80E890E00FB6F89480936100909342
:1032000061000FBE0E94A21608950E94311B0E9409
:103210008E1BE2EEF0E080818460808378940E94CF
:10322000111E08958CE091E00E94DE1408958091B3
:103230008902853031F480918902853019F00E942D
:103240001C1708950E94F1160E94AF16882399F367
:1032500080918702882379F30E9493190E94DD05EB
:10326000EACF08959A0140919002509191020E94F4
:103270003A190895AC01CB01D901252F332723300A
:103280003105E1F058F421303105C9F12230310522
:10329000D9F180E090E020E030E01EC0213231051D
:1032A00021F122323105A9F7892BC1F16130710575
:1032B00081F786EB90E029E831E00EC0CA0199273A
:1032C000413069F08230910569F0E8E3F1E0892B43
:1032D00001F7849190E09F012D933C930895ECE1D8
:1032E000F1E0F7CFECE0F1E0F4CF892B91F0613021
:1032F000710579F689E090E027E631E0EDCF82E1D3
:1033000090E027E731E0E8CF8BE390E02CE331E079
:10331000E3CF89E090E02EE431E0DECF84E490E07A
:103320002FE332E0D9CF80E189BD82E189BD09B4C4
:1033300000FEFDCF8091D8008F7D8093D8008091D2
:10334000E00082608093E0008091E00081FDFCCF8E
:103350000895AF92BF92CF92DF92FF920F931F9387
:10336000CF93DF936C01EB018A010E94001BF82EC2
:10337000811123C00115110539F0F8018081918177
:10338000C81BD90BC80ED91EA12CB12C2097A9F0AF
:103390008091E80085FD22C08091E8008E778093BF
:1033A000E80001151105A1F0F801808191818A0DD5
:1033B0009B1D9183808385E0F82E8F2DDF91CF9127
:1033C0001F910F91FF90DF90CF90BF90AF90089525
:1033D0000E94001B8823E1F2F82EEFCFF6018191C5
:1033E0006F018093F1002197FFEFAF1ABF0ACECF94
:1033F000FC019B01809190029091910286179707A2
:1034000018F0672B61F0C90140E0009771F4411199
:103410000CC08091E80082FF35C080E00895809163
:10342000E8008E778093E800EECF20918902222376
:10343000A9F12530A9F12091E80023FD2DC02091AC
:10344000E80022FDE6CF2091E80020FFDECF30919A
:10345000F3002091F200009719F02830310558F060
:1034600041E02830310509F040E02091E8002E7756
:103470002093E800CACF41914093F10001972F5F5C
:103480003F4FE9CF80918902882341F0853041F098
:103490008091E80083FFBDCF81E0089582E0089528
:1034A00083E00895FC019B0180919002909191022C
:1034B0008617970718F0672B61F0C90140E0009765
:1034C00071F441110CC08091E80082FF36C080E0A9
:1034D00008958091E8008E778093E800EECF2091E8
:1034E00089022223B1F12530B1F12091E80023FDBA
:1034F0002EC02091E80022FDE6CF2091E80020FFB9
:10350000DECF3091F3002091F200009719F02830BF
:10351000310558F041E02830310509F040E02091B4
:10352000E8002E772093E800CACF44914093F10041
:10353000319601972F5F3F4FE8CF80918902882312
:1035400041F0853041F08091E80083FFBCCF81E0FD
:10355000089582E0089583E00895982F973028F029
:103560008F708093E90081E008959093E900242F03
:10357000762F50E0981731F07091EC002091ED001B
:103580005091F00021FD02C09F5FE8CF3091EB0029
:103590003E7F3093EB003091ED003D7F3093ED00A6
:1035A0003091EB0031603093EB007093EC0020938E
:1035B000ED005093F0002091EE0027FDE5CF80E074
:1035C000089580918A0287FF13C08091E80082FFEE
:1035D00006C08091E8008B778093E80004C080915A
:1035E00089028111F2CF0895809189028823D9F34D
:1035F0008091E80080FFF8CF8091E8008E77ECCFD3
:103600002091E4003091E50095E6A9018091EC005D
:103610008170882331F08091E80080FF06C080E04F
:1036200008952091E80022FD1BC080918902882323
:1036300091F0853091F08091EB0085FD10C02091D4
:10364000E4003091E5004217530701F391509111C6
:10365000DCCF84E0089582E0089583E0089581E05E
:1036600008950E94A01B0E94A81BE0EEF0E080815C
:1036700081608083E8EDF0E080818F77808319BCE2
:10368000A7EDB0E08C918E7F8C9380818F7E8083BC
:103690001092880208950F931F93CF93DF930E9497
:1036A000A01B0E94A81BC8EDD0E088818F7788837B
:1036B00088818068888388818F7D888319BC109277
:1036C000890210928502109287021092860200EE03
:1036D00010E0F80180818B7F8083888181608883FE
:1036E00042E060E080E00E94AD1AE1EEF0E080810F
:1036F0008E7F8083E2EEF0E0808181608083808134
:1037000088608083F80180818E7F808388818061DA
:103710008883DF91CF911F910F910895E8EDF0E03C
:1037200080818F7E8083E7EDF0E0808181608083FF
:1037300084E082BF81E0809388020E944B1B089541
:10374000E8EDF0E080818E7F80831092E2000895A2
:103750001092DA001092E10008951F920F920FB6B6
:103760000F9211242F933F934F935F936F937F9307
:103770008F939F93AF93BF93EF93FF938091E1005B
:1037800082FF0BC08091E20082FF07C08091E100C0
:103790008B7F8093E1000E94101E8091DA0080FFF1
:1037A00019C08091D80080FF15C08091DA008E7F0B
:1037B0008093DA008091D90080FF94C080E189BDB8
:1037C00082E189BD09B400FEFDCF81E080938902CA
:1037D0000E94F5178091E10080FF19C08091E200FE
:1037E00080FF15C08091E2008E7F8093E20080917F
:1037F000E20080618093E2008091D8008062809333
:10380000D80019BC85E0809389020E940918809134
:10381000E10084FF29C08091E20084FF25C080E19F
:1038200089BD82E189BD09B400FEFDCF8091D80039
:103830008F7D8093D8008091E1008F7E8093E1009E
:103840008091E2008F7E8093E2008091E2008160AF
:103850008093E20080918502882309F449C084E0C6
:10386000809389020E9412188091E10083FF29C091
:103870008091E20083FF25C08091E100877F8093E3
:10388000E10082E080938902109285028091E1003C
:103890008E7F8093E1008091E2008E7F8093E20032
:1038A0008091E20080618093E20042E060E080E08D
:1038B0000E94AD1A8091F00088608093F0000E9411
:1038C0000618FF91EF91BF91AF919F918F917F91DA
:1038D0006F915F914F913F912F910F900FBE0F907D
:1038E0001F90189519BC109289020E94031872CF7C
:1038F0008091E30087FF02C083E0B2CF81E0B0CFC8
:103900001F920F920FB60F921124FF920F931F93E5
:103910002F933F934F935F936F937F938F939F93D7
:10392000AF93BF93CF93DF93EF93FF9309EE10E034
:10393000F8018081C091EC00C795CC27C7958F70A6
:10394000FC2EF82A1082C0EFD0E08881877F888320
:1039500078940E94C91CF80110828881886088834D
:10396000CF2DCF70C083FF91EF91DF91CF91BF91A9
:10397000AF919F918F917F916F915F914F913F9107
:103980002F911F910F91FF900F900FBE0F901F90DE
:103990001895AAE2B0E0EFECFCE10C94541E8AE822
:1039A00092E0FC0101962091F100208322E082390F
:1039B0009207B9F70E9432188091E80083FF38C05F
:1039C00080918A0290918B029A3090F5E92FF0E075
:1039D000EE5BF04E0C943F1E803889F0823841F542
:1039E00080918E028F70873018F58093E900809166
:1039F000EB0085FB882780F91092E90006C08091D2
:103A0000860290918702911182609091E800977FE1
:103A10009093E8008093F1001092F1008091E8000B
:103A20008E7723C0811116C080918C02813011F1F4
:103A30008091E80083FF0AC08091E800877F80932F
:103A4000E8008091EB0080628093EB00AA96E3E0AF
:103A50000C94701E823061F780918C02882389F06B
:103A60001092E9008091E800877F8093E8000E942F
:103A7000E11ADECF81E0933009F080E08093870285
:103A8000EFCF80918E028F702FEF280F263080F6B7
:103A90008093E9002091EB0020FFE2CF933031F4D6
:103AA0008091EB0080628093EB00DACF9091EB0085
:103AB00090619093EB0021E030E0A90102C0440F37
:103AC000551F8A95E2F74093EA001092EA00809130
:103AD000EB008860E8CF8111ABCF10918C021F778B
:103AE0008091E3008078812B8093E3008091E8004F
:103AF000877F8093E8000E94E11A8091E80080FFB0
:103B0000FCCF8091E30080688093E30083E0111193
:103B100001C082E0809389028BCF8058823008F008
:103B200087CF80918C0290918D028C3D53E0950758
:103B300099F583E08A838AE289834FB7F894DE019E
:103B4000139620E03EE051E2E32FF0E0509357005F
:103B5000849120FF03C082958F703F5F8F708A3001
:103B6000C8F0895C90E08D939D932F5F243161F7BD
:103B70004FBF8091E800877F8093E8006AE270E0A1
:103B8000CE0101960E94F8198091E8008B7780930E
:103B9000E8004ECF805DE6CF60918E0270918F027B
:103BA000AE014F5F5F4F0E943219BC01892B09F4AF
:103BB0003FCF8091E800877F8093E80089819A81D8
:103BC0000E94521AE1CF803809F032CF8091E8008C
:103BD000877F8093E800809185028093F1001ECF5B
:103BE000811126CF90918C02923008F021CF8091E4
:103BF000E800877F8093E800909385020E94E11A95
:103C000080918502882331F084E0809389020E94AC
:103C10001D180ECF8091E30087FDF6CF81E0F5CF30
:103C20000895CF9380918902882399F08091E900CB
:103C3000C091EC00C795CC27C7958F70C82B109208
:103C4000E9008091E80083FD0E94C91CCF70C093F9
:103C5000E900CF91089597FB072E16F4009407D042
:103C600077FD09D00E947C1E07FC05D03EF490959C
:103C700081959F4F0895709561957F4F0895EE0F40
:103C8000FF1F0590F491E02D09942F923F924F92DF
:103C90005F926F927F928F929F92AF92BF92CF92DC
:103CA000DF92EF92FF920F931F93CF93DF93CDB7E5
:103CB000DEB7CA1BDB0B0FB6F894DEBF0FBECDBF5D
:103CC00009942A88398848885F846E847D848C842E
:103CD0009B84AA84B984C884DF80EE80FD800C8137
:103CE0001B81AA81B981CE0FD11D0FB6F894DEBF1A
:103CF0000FBECDBFED010895AA1BBB1B51E107C04C
:103D0000AA1FBB1FA617B70710F0A61BB70B881F6B
:103D1000991F5A95A9F780959095BC01CD010895FA
:103D2000FB01DC0104C08D910190801921F4415008
:103D30005040C8F7881B990B0895FB01DC0102C0B5
:103D400001900D9241505040D8F70895F999FECF57
:103D500092BD81BDF89A992780B50895A8E1B0E099
:103D600042E050E00C94EA1EDC01A40FB51F415064
:103D7000504048F0CB01840F951F2E910E94C51E24
:103D800041505040D0F70895262FF999FECF92BDAB
:103D900081BDF89A019700B4021639F01FBA20BD10
:103DA0000FB6F894FA9AF99A0FBE08950396272F42
:103DB0000E94C51E0E94C41E252F0E94C51E242FCE
:103DC0000C94C51E0196272F0E94C51E0C94C41E7C
:103DD000DC01CB01FC01F999FECF06C0F2BDE1BDCB
:103DE000F89A319600B40D9241505040B8F70895BA
:103DF000F894FFCFCC03CC03130413047804950488
:103E0000FB03FB039A0411052205220529119D11CC
:103E10003111FB10FF1035110311391145110F112C
:103E200096111311491117114D1175111B115111D3
:103E30007C11211157115F1107113D110B11411117
:103E400025115B116B1185119411F5102D11A41121
:103E500048124E12511257126C126C126C126C12E4
:103E60006C126C126C126C125A125F12631269128D
:103E70007A1280128412B914BF14A914B314C51491
:103E8000CB14D114EC1C121D181D121D181D6B1D16
:083E90008D1D181DE31DF01D3E
:103E980012023202280850011E0A1401A217DE1766
:103EA800D717D017C91701E200E900EA00B500B634
:103EB80000B700CD008301CC008A01920194012152
:103EC80002230224022502260227022A02B300B492
:103ED800006F0070009F01CB019F02A002E200E981
:103EE80000EA00B500B600B700CD008301CC008A17
:103EF80001920194012102230224022502260227AD
:103F0800022A02B300B4006F0070009F01CB019F2A
:0E3F180002A0026694909197C63435323600AE
:00000001FF
